:02000000212AB3
:10000800FF00030E8301A1000A08A0008A018C1ECC
:100018000E288C1220088A00210E8300FF0E7F0E06
:020028000900CD
:0E002A00213083120313FD00FD0B192808007E
:100038000F3083120313FC004730FD00FD0B22280C
:0A004800FC0B222800000000080055
:06005200000000000800A0
:1000580083120313E11B3228861133288615611B8E
:100068003728061138280615E11A3C2886103D283D
:100078008614611A412806104228061427184628B3
:10008800061647280612861629208612E1194E28D8
:1000980086114F288615611953280611542806150C
:1000A800E118582886105928861461185D2806100A
:1000B8005E28061427186228061663280612861674
:1000C80029208612271C6A281C206B281520080066
:1000D8008312031327106008E1002C20271408005E
:1000E800831203135C08013A031D7D288030DC006D
:1000F80094285C08023A031D8428C030DC00942848
:100108005C08033A031D8B289430DC0094285C08B3
:10011800043A031D9228D430DC0094288030DC0097
:100128005D03F0005C08F0077008DC007008E1006F
:100138002C202710DF015F085E0784000008003AC2
:100148000319AE285F085E0784000008E0006C20F1
:08015800DF0A9F2827140800AC
:1001600083120313A201A501A6012508283E8400DD
:10017000800100302606031DBF280E302506031916
:0C018000C528A50A0319A60AB528080026
:10018C00831203135B08013A031DD4280130DC00F1
:10019C000130DD004830DE007420DB280230DC004A
:0C01AC000130DD003730DE007420080058
:1001B8004830840044308000840A61308000840A1A
:1001C80074308000840A61308000840A8001840AC7
:1001D80083120313B701A501A6018030F000803017
:1001E80026067002031DFA2825082202031C14297A
:1001F8002508373EF1002508283E84000008F00055
:10020800710884007008800000302606031D0E293E
:100218002208250603191429A50A0319A60AF12894
:0E022800220AF0007008373E840080010800B2
:04023600B0200800EC
:10023A00013083120313E1002C200130DB00C620B9
:08024A000230DB00C6200800B1
:100252008312031322080E3C031831291B2146295D
:100262005A08840000080D3A031D3A29DC201B219C
:1002720046292208283EF1005A0884000008F000AE
:0C0282007108840070088000A20A0800C7
:10028E00831203131A08F200981C4F29181218161D
:0A029E007208F1007108F00008007A
:1002A8000030831203138C1A0130F1007108F0003A
:0202B80008003C
:1002BA00831603138612061206108610061186117B
:1002CA0083128612061286110611861006101C2049
:1002DA001C201C20861406148616292086121C202F
:1002EA008616292086121C208616292086121C2092
:1002FA0006108616292086121C20861629208612A8
:10030A00861086158616292086121C208611061448
:10031A0086162920861206108616292086121C2087
:10032A0086162920861206148616292086121C2073
:10033A0006108616292086128615061586140614B6
:0C034A008616292086121C2027140800AB
:1003560054217008003A0319B72947217008D900BB
:0C0366005930DA002921AB291D210800C4
:100372004830840054308000840A65308000840A4A
:1003820073308000840A74308000840A69308000EF
:10039200840A6E308000840A67308000840A8001FB
:1003A200840A373084004C308000840A6F30800029
:1003B200840A6B308000840A6F308000840A6E30B9
:1003C2008000840A65308000840A74308000840AC8
:1003D2008001840A5D210130E1002C200C30E10013
:1003E2002C200130DC000630DD004830DE007420B5
:1003F2000230DC000630DD003730DE0074201530BC
:10040200FB004B30FC00BE30FD00FD0B062AFC0B4E
:10041200062AFB0B062A00000130E1002C2008000E
:100422008316031398169030831298008316871749
:10043200071383128C1E202A1A08F0001A2A0800B9
:10044200831603138601FF3083128600FF30831662
:1004520086000317880189011930031399001815C2
:1004620011220230FB000430FC00BA30FD00FD0B0B
:10047200382AFC0B382AFB0B382A0000B921B0209D
:1004820054217008003A0319472AAB21412A482A0D
:04400E00F22F000786
:00000001FF
