:02000000F029E5
:10000800FF00030E8301E1000A08E0008A0170087E
:10001800A1007108A0000408A2008C1E15284C211C
:100028008C122108F0002008F100220884006008E2
:0C0038008A00610E8300FF0E7F0E09009D
:06004400000000000800AE
:0E004A00213083120313FD00FD0B292808004E
:100058000F3083120313FC004730FD00FD0B3228DC
:0A006800FC0B322800000000080025
:1000720083160313EF1B4028831286114228831232
:10008200861583166F1B4828831206114A2883128D
:1000920006158316EF1A50288312861052288312EF
:1000A200861483166F1A5828831206105A28831250
:1000B20006146C185E2806165F2806128616222081
:1000C20086128316EF196828831286116A28831212
:1000D200861583166F1970288312061172288312EF
:1000E20006158316EF187828831286107A28831251
:1000F200861483166F1880288312061082288312B2
:1001020006146C18862806168728061286162220E0
:0E01120086126C1C8E282C208F2825200800B9
:10012000831203137408003A031D9928FF30F0006E
:10013000A92883120313F8010830FC00700DF80D94
:100140007408F8020318A628F8070310F00DFC0B3A
:040150009E280800DD
:10015400831203136C1083166E08EF0039206C149D
:02016400080091
:10016600831603139818B9280000B3286A08831267
:0401760099000800E4
:10017A00831603136A08013A031DC6288030EA0071
:10018A00DD286A08023A031DCD28C030EA00DD28BE
:10019A006A08033A031DD4289430EA00DD286A0865
:1001AA00043A031DDB28D430EA00DD288030EA0057
:1001BA006B03F0006A08F0077008EA007008EF00A5
:1001CA0039206C108316ED016D086C078400000855
:1001DA00003A0319F9286D086C0784000008EE003C
:0E01EA00AA208316ED0AE92883126C1408007F
:1001F800831603136B08840020308000840A2030A3
:100208008000840A30308000840A8001840A023029
:100218006B07EC006A08003A03192A290A30F4002F
:100228006A08F00090207808F0003030F007831654
:100238006C088400700880000A30F4006A08F00036
:0E024800902070088316EA00EC030E290800CF
:100256000030831203138C1A0130F1007108F0008C
:0202660008008E
:10026800040883120313F0007108840000080319BE
:100278004929F200040AF10070088400720880001D
:10028800040AF000710884003A2970088400080004
:1002980083120313EB011A08EA0006301805F1006F
:1002A8007108003C03185C2918121816FF30EB007F
:1002B8006B08003A031D84296508003A031D82294A
:1002C8006308A03E84006A088000E30A0319E40A70
:1002D80000306406031D722940306306031D762929
:1002E800E301E401E90164086806031D7D29670844
:1002F8006306FF30031D0030E5008429FF30E60067
:020308000800EB
:10030A00831203131A08F200981C8D291812181662
:0A031A007208F1007108F0000800FD
:100324008316031398169030831298008316871748
:10033400071383128C1EA1291A08F0009B290800B8
:1003440083160313861206120610861006118611F0
:1003540083128612061286110611861006102C20AE
:100364002C202C20861406148616222086122C207B
:100374008616222086122C208616222086122C20F5
:1003840006108616222086122C208616222086121B
:10039400861086158616222086122C2086110614B5
:1003A40086162220861206108616222086122C20FB
:1003B40086162220861206148616222086122C20E7
:1003C4000610861622208612861506158614061433
:0C03D4008616222086122C206C140800D3
:1003E000831603138601FF3083128600FF308316C5
:1003F0008600031788018901103084006D30800069
:10040000840A69308000840A6B308000840A72306C
:100410008000840A6F308000840A45308000840A9E
:100420006C308000840A65308000840A6B30800064
:10043000840A74308000840A72308000840A6F302D
:100440008000840A6E308000840A69308000840A4B
:100450006B308000840A61308000840A8001840A45
:10046000E030840045308000840A61308000840AD6
:1004700073308000840A79308000840A5030800014
:10048000840A49308000840A43308000840A363070
:100490008000840A8001840A213084005430800066
:1004A000840A65308000840A73308000840A7430C6
:1004B0008000840A69308000840A6E308000840ADB
:1004C00067308000840A8001840A2A3084004C301E
:1004D0008000840A6F308000840A6B308000840AB8
:1004E0006F308000840A6E308000840A653080009E
:1004F000840A74308000840A8001840A193003134E
:100500009900181592210230FB000430FC00BA302B
:10051000FD00FD0B892AFC0B892AFB0B892A0000B0
:10052000A22101308316EF0039200C308316EF0032
:10053000392001308316EA000630EB002130EC0050
:10054000BD2002308316EA000630EB002A30EC00B2
:10055000BD201530FB004B30FC00BE30FD00FD0B14
:10056000AF2AFC0BAF2AFB0BAF2A00000130831629
:10057000EF0039202B217008003A0319C32A0130FB
:100580008316EF003920EF01A3012B217008003AF8
:100590000319222B6F088316EA002130EB00FC20A0
:1005A0003230840044308000840A41308000840A64
:1005B00054308000840A41308000840A203080005A
:1005C000840A62308000840A79308000840A7430A2
:1005D0008000840A65308000840A73308000840AB9
:1005E0003A308000840A21308312F10034218001E6
:1005F000213084003230F100342180010130831633
:10060000EA000130EB002130EC00BD2085217008AC
:10061000E20070088316EA002A30EB00FC20831207
:1006200062088316EA00B32002308316EA00033022
:1006300083126F058316EB00EB0A2A30EC00BD2015
:08064000EF0AC52ABA2A232B98
:04400E00F22F000786
:00000001FF
