:02000000D32A01
:10000800FF00030E8301A1000A08A0008A018C1ECC
:100018000E288C1220088A00210E8300FF0E7F0E06
:020028000900CD
:0E002A00213083120313FD00FD0B192808007E
:100038000F3083120313FC004730FD00FD0B22280C
:0A004800FC0B222800000000080055
:06005200000000000800A0
:1000580083160313A21B33288312861135288312B3
:1000680086158316221B3B28831206113D2883120E
:1000780006158316A21A4328831286104528831270
:1000880086148316221A4B28831206104D288312D1
:1000980006142618512806165228061286162920F4
:1000A80086128316A2195B28831286115D28831293
:1000B8008615831622196328831206116528831270
:1000C80006158316A2186B28831286106D288312D2
:1000D8008614831622187328831206107528831233
:1000E80006142618792806167A2806128616292054
:0E00F8008612261C81281C2082281520080054
:1001060083120313261083162108A2002C2026141E
:020116000800DF
:10011800831203136D08013A031D95288030ED0002
:10012800AC286D08023A031D9C28C030ED00AC28AD
:100138006D08033A031DA3289430ED00AC286D0820
:10014800043A031DAA28D430ED00AC288030ED0015
:100158006E03F0006D08F0077008ED007008831654
:10016800A2002C2026108316A001200883126F07F6
:1001780084000008003A0319CD288316200883124A
:100188006F07840000088316A10083208316A00A45
:08019800B928831226140800A7
:1001A000831203136D08F400740884000008003AF9
:1001B0000319DC28F40AD4286D087402F200F30154
:1001C000031CF3030030F3007208F0007308F10021
:0201D000080025
:1001D200013083160313A2002C203830ED00D0200A
:1001E200700AF1007108B6007108103C031C042962
:1001F2003608383E8400203080003608103A031951
:100202000429B60AF9280130ED000130EE00383039
:10021200EF008C204930ED00D020700AF100710807
:10022200B6007108103C031C21293608493E84009F
:10023200203080003608103A03192129B60A1629FF
:100242000230ED000130EE004930EF008C20080052
:10025200040883120313F0007108840000080319D4
:100262003E29F200040AF10070088400720880003E
:10027200040AF000710884002F2970088400080025
:1002820083120313A201A5012508273E84008001E1
:0E02920025080E3A03194F29A50A4529080030
:1002A0003830840064308000840A6F308000840A13
:1002B0004C308000840A4E308000840A4630800032
:1002C000840A75308000840A6E308000840A6330AE
:1002D0008000840A74308000840A69308000840AB7
:1002E0006F308000840A6E308000840A8001840AA6
:1002F00083120313C901A50125082202031C9C29AE
:100300002508273EF000700884000008EC005B30F0
:1003100084004930F10029216C088000840A8001A2
:10032000493084005B30F100292180012508220634
:0C03300003199C29A50A7C29E92008007B
:04033C004121080053
:10034000831203135A0884000008003A031DA929E8
:10035000F62922080E3C0318E129383084004F307A
:100360008000840A75308000840A74308000840A1A
:1003700020308000840A6F308000840A663080005C
:10038000840A20308000840A62308000840A75303C
:100390008000840A66308000840A66308000840A07
:1003A00065308000840A72308000840A3A30800010
:1003B000840A28308000840A8001840AE9209E2172
:1003C000F6295A08840000080D3A031DEA29502135
:1003D0009E21F6292208273EF1005A0884000008D1
:0E03E000F0007108840070088000A20A080076
:1003EE00831203131A08F200981CFF29181218160C
:0A03FE007208F1007108F000080019
:100408000030831203138C1A0130F1007108F000D8
:020418000800DA
:10041A008316031386120612061086100611861119
:10042A0083128612061286110611861006101C20E7
:10043A001C201C20861406148616292086121C20CD
:10044A008616292086121C208616292086121C2030
:10045A0006108616292086121C2086162920861246
:10046A00861086158616292086121C2086110614E7
:10047A0086162920861206108616292086121C2026
:10048A0086162920861206148616292086121C2012
:10049A000610861629208612861506158614061455
:0C04AA008616292086121C20261408004B
:1004B60004227008003A0319672AF7217008B7006A
:0A04C6003730DA00A0215B2A08009D
:1004D0003830840054308000840A65308000840AFB
:1004E00073308000840A74308000840A6930800090
:1004F000840A6E308000840A67308000840A80019C
:10050000840A493084004C308000840A6F308000B7
:10051000840A6B308000840A6F308000840A6E3059
:100520008000840A65308000840A74308000840A68
:100530008001840A0D2201308316A2002C200C3089
:100540008316A2002C200130ED000630EE0038307A
:10055000EF008C200230ED000630EE004930EF0055
:100560008C201530FB004B30FC00BE30FD00FD0B35
:10057000B72AFC0BB72AFB0BB72A00000130831601
:06058000A2002C2008007F
:1005860083160313981690308312980083168717E4
:10059600071383128C1ED22A1A08F000CC2A0800F0
:1005A600831603138601FF3083128600FF308316FD
:1005B600860003178801890118300313990018155E
:1005C600C3220230FB000430FC00BA30FD00FD0BF4
:1005D600EA2AFC0BEA2AFB0BEA2A000068224121E0
:1005E60004227008003A0319F92A5B22F32AFA2A30
:04400E00F22F000786
:00000001FF
